:100000000C942A000C9447000C9447000C94470071
:100010000C9447000C9447000C9447000C94090D75
:100020000C9447000C94CE0C0C9447000C944700A1
:100030000C9447000C9447000C9447000C94470024
:100040000C9447000C9447000C9447000C94470014
:100050000C94470011241FBECFE5D8E0DEBFCDBF12
:1000600011E0A0E6B0E0E0E4F5E302C005900D92F7
:10007000A038B107D9F711E0A0E8B1E001C01D92A6
:10008000A63AB107E1F70E94A3050C949E1A0C94BE
:100090000000EF92FF920F931F937B018C0120E0F1
:1000A00030E040E05FE40E94490388238CF0C801FF
:1000B000B70120E030E040E05FE40E94C1010E940F
:1000C000A9039B01AC01205030404040504806C07D
:1000D000C801B7010E94A9039B01AC01B901CA0183
:1000E0001F910F91FF90EF900895A0E0B0E0EBE733
:1000F000F0E00C94BD17DC012B01FA019C919230C9
:1001000008F439C1EB018881823008F433C194309E
:1001100069F4843009F02FC111969C91119789815F
:10012000981709F428C1A4E5B1E025C1843009F489
:1001300021C18230A9F4923009F01DC19A01AD01AC
:1001400088E0EA010990AE01E90109929E0181501F
:10015000C1F7E201898111969C918923818308C1AD
:10016000923009F407C112962D903C901397EB0141
:100170008A819B811496AD90BD90CD90DC901797AD
:10018000EC80FD800E811F819101281B390BB90184
:1001900037FF04C066277727621B730B6032710537
:1001A0000CF061C0121613066CF537014801062EDB
:1001B00004C096948794779467940A94D2F721E0C8
:1001C00030E040E050E004C0220F331F441F551FB1
:1001D0006A95D2F721503040404050402E213F21B7
:1001E00040235123211531054105510521F021E01E
:1001F00030E040E050E079018A01E628F72808293C
:1002000019293CC0232BD1F1260E371E350146019A
:10021000062E04C096948794779467940A94D2F734
:1002200021E030E040E050E004C0220F331F441FC3
:10023000551F6A95D2F721503040404050402A2146
:100240003B214C215D21211531054105510521F04E
:1002500021E030E040E050E059016A01A628B728CB
:10026000C828D9280BC0821593052CF01C01AA249C
:10027000BB24650103C0EE24FF24870111969C91E5
:10028000D20111968C91981709F445C0992339F041
:10029000A80197012A193B094C095D0906C0A6016E
:1002A00095012E193F09400B510B57FD08C01182D3
:1002B0003382228224833583468357831DC081E0A5
:1002C00081833382228288279927DC01821B930B4A
:1002D000A40BB50B84839583A683B7830DC0220F2F
:1002E000331F441F551F24833583468357838281E0
:1002F000938101979383828324813581468157813D
:10030000DA01C9010197A109B1098F5F9F4FAF4F72
:10031000BF4328F30BC0918333822282EA0CFB1C7B
:100320000C1D1D1DE482F5820683178383E0808304
:10033000248135814681578157FF1AC0C901AA27F8
:1003400097FDA095BA2F81709070A070B0705695EF
:10035000479537952795822B932BA42BB52B848318
:100360009583A683B7838281938101969383828349
:10037000DF0101C0D201CD01CDB7DEB7E2E10C94BF
:10038000D917A0E2B0E0E7ECF1E00C94C91769835B
:100390007A838B839C832D833E834F835887E9E048
:1003A000EE2EF12CEC0EFD1ECE010196B7010E943F
:1003B000D2048E010F5E1F4FCE010596B8010E9438
:1003C000D2048A8991E089278A8BC701B801AE01DE
:1003D000475E5F4F0E9475000E94FD03A096E6E015
:1003E0000C94E517A0E2B0E0E8EFF1E00C94C91737
:1003F00069837A838B839C832D833E834F835887C5
:10040000F9E0EF2EF12CEC0EFD1ECE010196B701A6
:100410000E94D2048E010F5E1F4FCE010596B801D7
:100420000E94D204C701B801AE01475E5F4F0E942F
:1004300075000E94FD03A096E6E00C94E517A0E28B
:10044000B0E0E5E2F2E00C94BD1769837A838B8318
:100450009C832D833E834F835887CE010196BE0136
:10046000675F7F4F0E94D204CE010596BE016F5E8A
:100470007F4F0E94D2049985923088F0898982301A
:10048000C8F0943019F4823051F404C0843029F457
:10049000923081F484E591E0C6C0923049F420E0C6
:1004A0009A858A89981321E02A87CE010996BBC0D4
:1004B000823049F420E09A858A89981321E02A8BBA
:1004C000CE014196B0C02D843E844F8458886D88FB
:1004D0007E888F88988CEE24FF248701AA24BB2471
:1004E000650140E050E060E070E0E0E0F0E0C10174
:1004F00081709070892BE9F0E60CF71C081D191D1E
:100500009A01AB012A0D3B1D4C1D5D1D80E090E062
:10051000A0E0B0E0E614F7040805190520F481E036
:1005200090E0A0E0B0E0BA01A901480F591F6A1F8E
:100530007B1FAA0CBB1CCC1CDD1C97FE08C081E0F5
:1005400090E0A0E0B0E0A82AB92ACA2ADB2A3196B6
:10055000E032F10549F0660C771C881C991C569412
:10056000479437942794C3CFFA85EA892B893C892D
:100570008B859C85280F391F2E5F3F4F17C0CA01FE
:1005800081709070892B61F016950795F794E79428
:1005900080E090E0A0E0B0E8E82AF92A0A2B1B2BC3
:1005A00076956795579547952F5F3F4F77FDE7CF36
:1005B0000CC0440F551F661F771F17FD4160EE0CDE
:1005C000FF1C001F111F21503040403090E05907A0
:1005D00090E0690790E4790760F32B8F3C8FDB0193
:1005E000CA018F779070A070B07080349105A1051A
:1005F000B10561F447FD0AC0E114F10401051105DC
:1006000029F0405C5F4F6F4F7F4F40781A8EFE1786
:1006100011F081E08A8F4D8F5E8F6F8F78A383E01A
:10062000898FCE0149960E94FD03A096E2E10C94C9
:10063000D917A8E1B0E0EFE1F3E00C94C9176983A2
:100640007A838B839C832D833E834F83588789E0F5
:10065000E82EF12CEC0EFD1ECE010196B7010E9492
:10066000D2048E010F5E1F4FCE010596B8010E9485
:10067000D2048985823040F08989823028F0C70110
:10068000B8010E944A0501C08FEF6896E6E00C941D
:10069000E517A8E1B0E0EFE4F3E00C94C917698333
:1006A0007A838B839C832D833E834F83588789E095
:1006B000E82EF12CEC0EFD1ECE010196B7010E9432
:1006C000D2048E010F5E1F4FCE010596B8010E9425
:1006D000D2048985823040F08989823028F0C701B0
:1006E000B8010E944A0501C08FEF6896E6E00C94BD
:1006F000E517A8E1B0E0EFE7F3E00C94C9176983D0
:100700007A838B839C832D833E834F83588789E034
:10071000E82EF12CEC0EFD1ECE010196B7010E94D1
:10072000D2048E010F5E1F4FCE010596B8010E94C4
:10073000D2048985823040F08989823028F0C7014F
:10074000B8010E944A0501C081E06896E6E00C9479
:10075000E517ACE0B0E0EFEAF3E00C94CD17698365
:100760007A838B839C83CE010196BE016B5F7F4FA2
:100770000E94D2048D81823061F1823050F1843048
:1007800021F48E81882351F12EC02F81388537FDC9
:1007900020C06E812F3131051CF06623F9F023C093
:1007A0008EE190E0821B930B29853A854B855C8511
:1007B00004C056954795379527958A95D2F76623B5
:1007C000B1F050954095309521953F4F4F4F5F4F79
:1007D0000EC020E030E040E050E009C02FEF3FEFD6
:1007E0004FEF5FE704C020E030E040E050E8B9019F
:1007F000CA012C96E2E00C94E917DF92EF92FF9287
:100800000F931F93FC01E480F58006811781D1804E
:100810008081823048F480E090E0A0E1B0E0E82AF6
:10082000F92A0A2B1B2BA5C0843009F49FC0823003
:1008300021F4EE24FF24870105C0E114F104010531
:10084000110519F4E0E0F0E096C0628173819FEF3A
:10085000623879070CF05BC022E83FEF261B370BAC
:100860002A3131052CF020E030E040E050E02AC091
:10087000B801A701022E04C0769567955795479554
:100880000A94D2F781E090E0A0E0B0E004C0880FC5
:10089000991FAA1FBB1F2A95D2F70197A109B10979
:1008A0008E219F21A023B1230097A105B10521F03E
:1008B00081E090E0A0E0B0E09A01AB01282B392B59
:1008C0004A2B5B2BDA01C9018F779070A070B07052
:1008D00080349105A105B10539F427FF09C0205CDA
:1008E0003F4F4F4F5F4F04C0215C3F4F4F4F5F4F13
:1008F000E0E0F0E02030A0E03A07A0E04A07A0E402
:100900005A0710F0E1E0F0E079018A0127C0603871
:10091000710564F5FB01E158FF4FD801C7018F77DE
:100920009070A070B07080349105A105B10539F4C4
:10093000E7FE0DC080E490E0A0E0B0E004C08FE3EB
:1009400090E0A0E0B0E0E80EF91E0A1F1B1F17FFA1
:1009500005C016950795F794E794319687E01695AC
:100960000795F794E7948A95D1F705C0EE24FF2404
:100970008701EFEFF0E06E2F679566276795902F60
:100980009F77D794DD24D7948E2F8695492F462BB9
:10099000582F5D29B701CA011F910F91FF90EF9069
:1009A000DF900895FC01DB01408151812281622F9B
:1009B0006F7770E0221F2227221F9381892F880FD3
:1009C000822B282F30E0991F9927991F11969C930D
:1009D000119721153105A9F54115510561057105DD
:1009E00011F482E037C082E89FEF13969C938E93B8
:1009F00012979A01AB0167E0220F331F441F551F66
:100A00006A95D1F783E08C930DC0220F331F441FEA
:100A1000551F12968D919C911397019713969C9355
:100A20008E931297203080E0380780E0480780E4FA
:100A3000580758F314962D933D934D935C93179755
:100A400008952F3F310579F4411551056105710570
:100A500019F484E08C93089564FF03C081E08C93C3
:100A600012C01C9210C02F57304013963C932E9307
:100A7000129783E08C9387E0440F551F661F771F02
:100A80008A95D1F7706414964D935D936D937C9322
:100A9000179708951F93DC01FB019C91923008F495
:100AA00047C08081823008F443C0943051F41196DD
:100AB0001C91843099F58181682F70E0611B710968
:100AC0003FC0843021F0923031F48230B9F181811D
:100AD000882389F12DC011961C9111978230F1F075
:100AE00081811817D9F412962D913C911397828128
:100AF00093818217930794F028173907BCF0149656
:100B00008D919D910D90BC91A02D248135814681C0
:100B10005781281739074A075B0718F4112341F05A
:100B20000AC082179307A407B50740F4112319F0F0
:100B300061E070E005C06FEF7FEF02C060E070E041
:100B4000CB011F910895DF93CF93CDB7DEB76E979A
:100B50000FB6F894DEBF0FBECDBF0E94301187E7FD
:100B600091E00E946B16EFE5F0E080818068808361
:100B70000E94BE090E94611620917C0130917D0186
:100B800080E060E0A9010E94081680E090E0A8ECF7
:100B9000B3E4898F9A8FAB8FBC8F698D7A8D8B8DE3
:100BA0009C8D20E030E04AEF54E40E941F02DC01FB
:100BB000CB018D8B9E8BAF8BB88F6D897E898F8992
:100BC000988D20E030E040E85FE30E9479038823BD
:100BD0002CF481E090E09C8B8B8B3FC06D897E89EB
:100BE0008F89988D20E03FEF4FE757E40E9419036B
:100BF00018164CF5698D7A8D8B8D9C8D20E030E038
:100C000040E251E40E941F02DC01CB01BC01CD0196
:100C10000E944900DC01CB019C8B8B8B0FC088ECC0
:100C200090E09A8B898B89899A890197F1F79A8B41
:100C3000898B8B899C8901979C8B8B8B8B899C8959
:100C4000009769F714C06D897E898F89988D0E94FD
:100C50004900DC01CB019C8B8B8B8B899C89988B09
:100C60008F878F8598890197F1F7988B8F870E94DE
:100C70007E0B80E991E00E94930B80E991E00E9455
:100C8000540C80919001282F30E03E8F2D8F8D8D58
:100C90009E8D8B32910531F02D8D3E8D2D3231059B
:100CA000E1F1E5CF0E942A0C809164018823E9F4E8
:100CB000109283012EE730E080E060E0A9010E94FD
:100CC00008162FE830E081E060E0A9010E940816D4
:100CD00087EB9CE00E94CD0D81E791E00E943C0DE6
:100CE000809183018823E1F3C2CF109282010E9498
:100CF000611620EA30E080E060E0A9010E94081659
:100D000085E69CE00E94CD0D85E691E00E943C0DB9
:100D1000809182018823E1F3AACF0E942A0C80915E
:100D200064018823F9F4109283010E9461162FEA6E
:100D300030E080E060E0A9010E9408162EEB30E070
:100D400081E060E0A9010E94081687EB9CE00E9408
:100D5000CD0D81E791E00E943C0D809183018823B5
:100D6000E1F385CF0E94BE090E94611620917C01AB
:100D700030917D0180E060E0A9010E94081680E0CA
:100D800090E0A8ECB3E48B879C87AD87BE876B852A
:100D90007C858D859E8520E030E04AEF54E40E94FA
:100DA0001F02DC01CB018F839887A987BA876F81E7
:100DB000788589859A8520E030E040E85FE30E94ED
:100DC000790388232CF481E090E09E838D833FC0DB
:100DD0006F81788589859A8520E03FEF4FE757E45A
:100DE0000E94190318164CF56B857C858D859E85B0
:100DF00020E030E040E251E40E941F02DC01CB0120
:100E0000BC01CD010E944900DC01CB019E838D8392
:100E10000FC088EC90E09C838B838B819C81019731
:100E2000F1F79C838B838D819E8101979E838D83B7
:100E30008D819E81009769F71ACF6F8178858985AA
:100E40009A850E944900DC01CB019E838D838D81B0
:100E50009E819A83898389819A810197F1F79A8388
:100E6000898305CFDF93CF93CDB7DEB763970FB6F6
:100E7000F894DEBF0FBECDBF998B888B7B8B6A8BBE
:100E8000EA89FB8910821182128213820E94611604
:100E9000809190018D3241F42EEC30E080E060E0F2
:100EA000A9010E94081607C02EED30E080E060E046
:100EB000A9010E94081681E060E00E94C6151F8605
:100EC000A4C00E949D0FE889F989808380E090E0AA
:100ED000A8ECB3E48B879C87AD87BE876B857C8548
:100EE0008D859E8520E030E04AEF54E40E941F0289
:100EF000DC01CB018F839887A987BA876F817885BA
:100F000089859A8520E030E040E85FE30E9479031C
:100F100088232CF481E090E09E838D833FC06F8115
:100F2000788589859A8520E03FEF4FE757E40E9456
:100F3000190318164CF56B857C858D859E8520E000
:100F400030E040E251E40E941F02DC01CB01BC0111
:100F5000CD010E944900DC01CB019E838D830FC02F
:100F600088EC90E09C838B838B819C810197F1F7C7
:100F70009C838B838D819E8101979E838D838D8140
:100F80009E81009769F714C06F81788589859A855D
:100F90000E944900DC01CB019E838D838D819E815F
:100FA0009A83898389819A810197F1F79A8389834A
:100FB000E889F98980818A3008F083CF8AE20E942B
:100FC000BB13EA89FB8980819181A281B3812AE0E8
:100FD00030E040E050E0BC01CD010E947C179B0155
:100FE000AC01E889F9898081882F90E0A0E0B0E029
:100FF000820F931FA41FB51FEA89FB898083918309
:10100000A283B3838F858F5F8F878F85853008F4A8
:1010100058CF63960FB6F894DEBF0FBECDBFCF9109
:10102000DF910895DF93CF93CDB7DEB763970FB607
:10103000F894DEBF0FBECDBF998B888B7B8B6A8BFC
:10104000EA89FB8910821182128213820E94611642
:101050002EEE30E080E060E0A9010E94081681E0F9
:1010600060E00E94C61580E091E00E94AA151F86EC
:10107000A4C00E949D0FE889F989808380E090E0F8
:10108000A8ECB3E48B879C87AD87BE876B857C8596
:101090008D859E8520E030E04AEF54E40E941F02D7
:1010A000DC01CB018F839887A987BA876F81788508
:1010B00089859A8520E030E040E85FE30E9479036B
:1010C00088232CF481E090E09E838D833FC06F8164
:1010D000788589859A8520E03FEF4FE757E40E94A5
:1010E000190318164CF56B857C858D859E8520E04F
:1010F00030E040E251E40E941F02DC01CB01BC0160
:10110000CD010E944900DC01CB019E838D830FC07D
:1011100088EC90E09C838B838B819C810197F1F715
:101120009C838B838D819E8101979E838D838D818E
:101130009E81009769F714C06F81788589859A85AB
:101140000E944900DC01CB019E838D838D819E81AD
:101150009A83898389819A810197F1F79A83898398
:10116000E889F98980818A3008F083CF8AE20E9479
:10117000BB13EA89FB8980819181A281B3812AE036
:1011800030E040E050E0BC01CD010E947C179B01A3
:10119000AC01E889F9898081882F90E0A0E0B0E077
:1011A000820F931FA41FB51FEA89FB898083918357
:1011B000A283B3838F858F5F8F878F85853008F4F7
:1011C00058CF63960FB6F894DEBF0FBECDBFCF9158
:1011D000DF910895DF93CF93CDB7DEB763970FB656
:1011E000F894DEBF0FBECDBF998B888B7B8B6A8B4B
:1011F000EA89FB8910821182128213820E94611691
:101200002EED30E080E060E0A9010E94081681E048
:1012100060E00E94C6151F86A4C00E949D0FE88949
:10122000F989808380E090E0A8ECB3E48B879C8709
:10123000AD87BE876B857C858D859E8520E030E0FF
:101240004AEF54E40E941F02DC01CB018F83988790
:10125000A987BA876F81788589859A8520E030E0F3
:1012600040E85FE30E94790388232CF481E090E05A
:101270009E838D833FC06F81788589859A8520E024
:101280003FEF4FE757E40E94190318164CF56B85A2
:101290007C858D859E8520E030E040E251E40E940F
:1012A0001F02DC01CB01BC01CD010E944900DC0121
:1012B000CB019E838D830FC088EC90E09C838B8351
:1012C0008B819C810197F1F79C838B838D819E811B
:1012D00001979E838D838D819E81009769F714C04D
:1012E0006F81788589859A850E944900DC01CB0150
:1012F0009E838D838D819E819A83898389819A8142
:101300000197F1F79A838983E889F98980818A3086
:1013100008F083CF8AE20E94BB13EA89FB898081AF
:101320009181A281B3812AE030E040E050E0BC012D
:10133000CD010E947C179B01AC01E889F98980816D
:10134000882F90E0A0E0B0E0820F931FA41FB51F8C
:10135000EA89FB8980839183A283B3838F858F5F22
:101360008F878F85853008F458CF63960FB6F89431
:10137000DEBF0FBECDBFCF91DF910895DF93CF9336
:10138000CDB7DEB72E970FB6F894DEBF0FBECDBF38
:1013900080E891E021E931E0B9010E94320780E85C
:1013A00091E00E948C0A80E891E02CE831E0B901DC
:1013B0000E94120880E891E00E948C0A80915C01F2
:1013C00090915D010E941E0B80915E0190915F01E2
:1013D0000E943E0B89E991E00E94391720917C011F
:1013E00030917D0189E991E0B9010E94F4170097DD
:1013F00009F47DC00E94611620917E0130917F0129
:1014000080E060E0A9010E94081680E090E0A8EC6E
:10141000B3E48B879C87AD87BE876B857C858D8584
:101420009E8520E030E04AEF54E40E941F02DC0178
:10143000CB018F839887A987BA876F817885898543
:101440009A8520E030E040E85FE30E94790388233A
:101450002CF481E090E09E838D833FC06F8178857E
:1014600089859A8520E03FEF4FE757E40E941903F2
:1014700018164CF56B857C858D859E8520E030E0C7
:1014800040E251E40E941F02DC01CB01BC01CD010E
:101490000E944900DC01CB019E838D830FC088EC44
:1014A00090E09C838B838B819C810197F1F79C83D7
:1014B0008B838D819E8101979E838D838D819E81FB
:1014C000009769F714C06F81788589859A850E9495
:1014D0004900DC01CB019E838D838D819E819A839F
:1014E000898389819A810197F1F79A838983209171
:1014F0007C0130917D0189E991E0B9010E94F417E6
:10150000009709F045CF2E960FB6F894DEBF0FBEB8
:10151000CDBFCF91DF910895DF93CF93CDB7DEB7E5
:1015200060970FB6F894DEBF0FBECDBF988B8F8744
:101530000E949D0FEF85F889808380E090E0A8EC01
:10154000B3E48B879C87AD87BE876B857C858D8553
:101550009E8520E030E04AEF54E40E941F02DC0147
:10156000CB018F839887A987BA876F817885898512
:101570009A8520E030E040E85FE30E947903882309
:101580002CF481E090E09E838D833FC06F8178854D
:1015900089859A8520E03FEF4FE757E40E941903C1
:1015A00018164CF56B857C858D859E8520E030E096
:1015B00040E251E40E941F02DC01CB01BC01CD01DD
:1015C0000E944900DC01CB019E838D830FC088EC13
:1015D00090E09C838B838B819C810197F1F79C83A6
:1015E0008B838D819E8101979E838D838D819E81CA
:1015F000009769F714C06F81788589859A850E9464
:101600004900DC01CB019E838D838D819E819A836D
:10161000898389819A810197F1F79A838983EF857C
:10162000F88980818D3309F083CF60960FB6F894E6
:10163000DEBF0FBECDBFCF91DF910895DF93CF9373
:1016400000D00F92CDB7DEB79B838A8319820DC07D
:10165000EA81FB8180810E94F91689818F5F8983ED
:101660008A819B8101969B838A838981843080F360
:101670000F900F900F90CF91DF910895DF93CF934C
:1016800000D00F92CDB7DEB79B838A8319820DC03D
:10169000EA81FB8180810E94F91689818F5F8983AD
:1016A0008A819B8101969B838A838981843080F320
:1016B0000F900F900F90CF91DF910895DF93CF930C
:1016C00000D00F92CDB7DEB79B838A8319820DC0FD
:1016D000EA81FB8180810E94F91689818F5F89836D
:1016E0008A819B8101969B838A838981843080F3E0
:1016F0000F900F900F90CF91DF910895DF93CF93CC
:10170000CDB7DEB72CE031E080E060E0A9010E94B7
:1017100008162EE131E081E060E0A9010E94081680
:10172000CF91DF910895DF93CF93CDB7DEB7609768
:101730000FB6F894DEBF0FBECDBF988B8F870E9487
:101740009D0FEF85F889808380E090E0A8ECB3E4FA
:101750008B879C87AD87BE876B857C858D859E85B5
:1017600020E030E04AEF54E40E941F02DC01CB018C
:101770008F839887A987BA876F81788589859A85AD
:1017800020E030E040E85FE30E94790388232CF4F6
:1017900081E090E09E838D833FC06F81788589854D
:1017A0009A8520E03FEF4FE757E40E94190318168F
:1017B0004CF56B857C858D859E8520E030E040E290
:1017C00051E40E941F02DC01CB01BC01CD010E944B
:1017D0004900DC01CB019E838D830FC088EC90E033
:1017E0009C838B838B819C810197F1F79C838B83F6
:1017F0008D819E8101979E838D838D819E8100972F
:1018000069F714C06F81788589859A850E9449009F
:10181000DC01CB019E838D838D819E819A83898398
:1018200089819A810197F1F79A838983EF85F889F5
:1018300080818B3231F0EF85F88980818D3209F01B
:101840007ECF60960FB6F894DEBF0FBECDBFCF91AE
:10185000DF910895DF93CF930F92CDB7DEB7198252
:101860001CC080E891E028E831E0B9010E94EA0854
:1018700080E891E00E948C0A809160019091610162
:101880000E945E0B0E940D17809364018091640199
:10189000813031F089818F5F89838981833008F3BA
:1018A0000F90CF91DF910895DF93CF9300D0CDB704
:1018B000DEB79A838983E981FA8180810E94F916D3
:1018C0000F900F90CF91DF910895DF93CF93CDB715
:1018D000DEB7809181018F5F8093810180918101CA
:1018E000823099F420E331E080E060E0A9010E94B9
:1018F00008160E94AE0D88E89CE00E94CD0D8BE694
:1019000091E00E943C0D10928101CF91DF910895EA
:10191000DF93CF93CDB7DEB721E431E080E060E024
:10192000A9010E9408160E94AE0D80EA9CE00E9468
:10193000CD0D85E691E00E943C0DCF91DF91089599
:10194000DF93CF93CDB7DEB7809181018F5F809316
:10195000810180918101823039F40E94AE0D109294
:10196000810181E080938201CF91DF910895DF931F
:10197000CF93CDB7DEB7809181018F5F80938101D6
:1019800080918101883039F4109281010E94AE0D5E
:1019900081E080938301CF91DF9108951F920F9290
:1019A0000FB60F9211242F933F934F935F936F9332
:1019B0007F938F939F93AF93BF93EF93FF93DF93A7
:1019C000CF93CDB7DEB780918401909185010097C8
:1019D00069F0E0918401F09185010995ECE4F0E073
:1019E000809186019091870191838083CF91DF91CF
:1019F000FF91EF91BF91AF919F918F917F916F91E7
:101A00005F914F913F912F910F900FBE0F901F90BC
:101A100018951F920F920FB60F9211242F933F9398
:101A20004F935F936F937F938F939F93AF93BF93E6
:101A3000EF93FF93DF93CF93CDB7DEB7809184010F
:101A400090918501009729F0E0918401F091850142
:101A50000995CF91DF91FF91EF91BF91AF919F9148
:101A60008F917F916F915F914F913F912F910F9047
:101A70000FBE0F901F901895DF93CF9300D000D02A
:101A8000CDB7DEB79A838983ACE4B0E0E981FA810F
:101A90008081918111969C938E93E981FA81858151
:101AA000843059F4EAE4F0E0A981BA8112968D916C
:101AB0009C9113979183808308C0E981FA8180818A
:101AC00091819093870180938601EFE4F0E080811B
:101AD00088608083AFE4B0E0EFE4F0E08081982F8D
:101AE0009C7FE981FA8185818370892B8C93AEE498
:101AF000B0E0EEE4F0E08081282F277EE981FA81D2
:101B00008581882F90E08C709070880F991F822BB0
:101B10008C93AEE4B0E0EEE4F0E08081982F987F03
:101B2000E981FA818481892B8C93E981FA8185810D
:101B3000843039F4E9E5F0E0808180618083808140
:101B400006C0E9E5F0E080818460808380810F90A9
:101B50000F900F900F90CF91DF910895DF93CF9367
:101B6000CDB7DEB7EFE4F0E01082EEE4F0E01082F3
:101B7000ECE4F0E011821082E9E5F0E080818F7EF4
:101B80008083E9E5F0E080818B7F8083109285017E
:101B900010928401CF91DF910895DF93CF9300D00D
:101BA000CDB7DEB79A83898389819A819093850125
:101BB000809384010F900F90CF91DF910895DF9370
:101BC000CF93CDB7DEB727970FB6F894DEBF0FBE21
:101BD000CDBF89836A834B838981843018F48A81DD
:101BE000883028F081E090E09F838E8302C01F82BE
:101BF0001E828E819F81009709F059C08B818130B0
:101C000059F58981282F30E0C901880F991F820F6B
:101C1000931F909581959F4FCA96DC018981282F4B
:101C200030E0C901880F991F820F931F909581950D
:101C30009F4FCA96FC018081482F8A81282F30E06F
:101C400081E090E0022E02C0880F991F0A94E2F70B
:101C5000842B8C939C912BC08981282F30E0C90163
:101C6000880F991F820F931F909581959F4FCA9659
:101C7000DC018981282F30E0C901880F991F820F6C
:101C8000931F909581959F4FCA96FC018081482FA4
:101C90008A81282F30E081E090E0022E02C0880F78
:101CA000991F0A94E2F7809584238C938C91279650
:101CB0000FB6F894DEBF0FBECDBFCF91DF91089570
:101CC000DF93CF93CDB7DEB727970FB6F894DEBF7B
:101CD0000FBECDBF89836A834B838981843018F41A
:101CE0008A81883028F081E090E09F838E8302C053
:101CF0001F821E828E819F81009709F059C08B81BF
:101D0000813059F58981282F30E0C901880F991F4A
:101D1000820F931F909581959F4FCB96DC0189810F
:101D2000282F30E0C901880F991F820F931F9095CB
:101D300081959F4FCB96FC018081482F8A81282F67
:101D400030E081E090E0022E02C0880F991F0A94D3
:101D5000E2F7842B8C939C912BC08981282F30E053
:101D6000C901880F991F820F931F909581959F4FEE
:101D7000CB96DC018981282F30E0C901880F991F9B
:101D8000820F931F909581959F4FCB96FC01808188
:101D9000482F8A81282F30E081E090E0022E02C097
:101DA000880F991F0A94E2F7809584238C938C9175
:101DB00027960FB6F894DEBF0FBECDBFCF91DF914F
:101DC0000895DF93CF9300D000D0CDB7DEB78983DD
:101DD0006A838981843040F58A81883028F5898139
:101DE000282F30E0C901880F991F820F931F90950B
:101DF00081959F4FC996FC018081282F30E08A8110
:101E0000882F90E0A90102C0559547958A95E2F781
:101E1000CA0181709070882319F051E05B8301C082
:101E20001B828B818C8301C01C828C810F900F9050
:101E30000F900F90CF91DF910895DF93CF9300D053
:101E400000D000D0CDB7DEB789836A831D821C82A3
:101E50008981843020F081E090E09D838C838C81A7
:101E6000882311F0998110C08981282F30E0C901A1
:101E7000880F991F820F931F909581959F4FCA9647
:101E8000FC018A818083808126960FB6F894DEBF9C
:101E90000FBECDBFCF91DF910895DF93CF9300D0D8
:101EA00000D000D0CDB7DEB789836A831D821C8243
:101EB0008981843020F081E090E09D838C838C8147
:101EC000882311F0998110C08981282F30E0C90141
:101ED000880F991F820F931F909581959F4FCB96E6
:101EE000FC018A818083808126960FB6F894DEBF3C
:101EF0000FBECDBFCF91DF910895DF93CF9300D078
:101F0000CDB7DEB789838981843080F48981282F19
:101F100030E0C901880F991F820F931F909581951A
:101F20009F4FC996FC0180818A8301C01A828A81F1
:101F30000F900F90CF91DF910895DF93CF93CDB79E
:101F4000DEB760970FB6F894DEBF0FBECDBF81E05D
:101F500064E040E00E94DF0D81E065E040E00E9427
:101F6000DF0D81E066E040E00E94DF0D81E067E088
:101F700040E00E94DF0D83E062E040E00E94DF0D60
:101F800083E063E040E00E94DF0D83E064E040E036
:101F90000E94DF0D83E065E040E00E94DF0D188ABB
:101FA000B4C08889982F9C5F81E0692F41E00E942E
:101FB000DF0D8889982F9C5F81E0692F40E00E94A7
:101FC000600E1F8622C08F85982F9E5F83E0692F49
:101FD0000E94E10E8823B1F48889882F90E0880F51
:101FE000991F880F991F982F8F85890F8F5F0E94E7
:101FF0008A1060960FB6F894DEBF0FBECDBFCF91AA
:10200000DF9108958F858F5F8F878F858430D8F219
:102010008889982F9C5F81E0692F40E00E94DF0D46
:1020200080E090E0A0E2B1E48B879C87AD87BE871B
:102030006B857C858D859E8520E030E04AEF54E4F9
:102040000E941F02DC01CB018F839887A987BA8782
:102050006F81788589859A8520E030E040E85FE3EC
:102060000E94790388232CF481E090E09E838D8385
:102070003FC06F81788589859A8520E03FEF4FE7E3
:1020800057E40E94190318164CF56B857C858D85E5
:102090009E8520E030E040E251E40E941F02DC0116
:1020A000CB01BC01CD010E944900DC01CB019E8324
:1020B0008D830FC088EC90E09C838B838B819C8107
:1020C0000197F1F79C838B838D819E8101979E837D
:1020D0008D838D819E81009769F714C06F8178850B
:1020E00089859A850E944900DC01CB019E838D83FE
:1020F0008D819E819A83898389819A810197F1F7E5
:102100009A83898388898F5F888B8889843008F4D3
:1021100048CF45CFDF93CF9300D000D0CDB7DEB707
:1021200089838981282F30E03C832B838B819C819C
:102130008830910509F470C02B813C81293031052C
:102140005CF58B819C818430910509F459C02B8109
:102150003C81253031059CF48B819C818230910536
:1021600009F448C02B813C81233031050CF045C077
:102170008B819C818130910509F439C067C02B8126
:102180003C812630310509F441C08B819C81873028
:1021900091050CF03EC037C02B813C812C303105BD
:1021A00009F446C08B819C818D3091055CF42B81B4
:1021B0003C812A303105B1F18B819C818B309105B6
:1021C000A4F52DC02B813C812E303105B9F18B81D6
:1021D0009C818E3091057CF12B813C812F30310523
:1021E00079F18B819C818031910569F12FC097E055
:1021F0009A832EC028E02A832BC039E03A8328C076
:102200008FE28A8325C094E09A8322C025E02A8346
:102210001FC036E03A831CC08AE28A8319C091E06D
:102220009A8316C022E02A8313C033E03A8310C099
:102230008DE28A830DC09DE09A830AC01A8208C08D
:102240002DE32A8305C03BE23A8302C089818A8359
:102250008A810F900F900F900F90CF91DF9108958A
:10226000DF93CF93CDB7DEB72E970FB6F894DEBFCE
:102270000FBECDBF83E066E041E00E94DF0D83E04A
:1022800067E041E00E94DF0D80E090E0A0EAB1E469
:102290008B879C87AD87BE876B857C858D859E856A
:1022A00020E030E04AEF54E40E941F02DC01CB0141
:1022B0008F839887A987BA876F81788589859A8562
:1022C00020E030E040E85FE30E94790388232CF4AB
:1022D00081E090E09E838D833FC06F817885898502
:1022E0009A8520E03FEF4FE757E40E941903181644
:1022F0004CF56B857C858D859E8520E030E040E245
:1023000051E40E941F02DC01CB01BC01CD010E94FF
:102310004900DC01CB019E838D830FC088EC90E0E7
:102320009C838B838B819C810197F1F79C838B83AA
:102330008D819E8101979E838D838D819E810097E3
:1023400069F714C06F81788589859A850E94490054
:10235000DC01CB019E838D838D819E819A8389834D
:1023600089819A810197F1F79A83898382E06FEFDF
:102370000E941D0F88E30E94CC118CE00E94CC11BA
:1023800081E00E94CC112E960FB6F894DEBF0FBEEE
:10239000CDBFCF91DF910895DF93CF93CDB7DEB757
:1023A000E9970FB6F894DEBF0FBECDBF89AF83E0CB
:1023B00066E040E00E94600E80E090E0A0E8BFE3AD
:1023C0008DAB9EABAFABB8AF6DA97EA98FA998AD11
:1023D00020E030E04AEF54E40E941F02DC01CB0110
:1023E00089AB9AABABABBCAB69A97AA98BA99CA909
:1023F00020E030E040E85FE30E94790388232CF47A
:1024000081E090E098AB8FA73FC069A97AA98BA91A
:102410009CA920E03FEF4FE757E40E9419031816EC
:102420004CF56DA97EA98FA998AD20E030E040E27F
:1024300051E40E941F02DC01CB01BC01CD010E94CE
:102440004900DC01CB0198AB8FA70FC088EC90E06E
:102450009EA78DA78DA59EA50197F1F79EA78DA795
:102460008FA598A9019798AB8FA78FA598A90097DA
:1024700069F714C069A97AA98BA99CA90E9449008F
:10248000DC01CB0198AB8FA78FA598A99CA78BA740
:102490008BA59CA50197F1F79CA78BA783E067E02C
:1024A00041E00E94600E80E090E0A0E8BFE38FA3CF
:1024B00098A7A9A7BAA76FA178A589A59AA520E092
:1024C00030E04AEF54E40E941F02DC01CB018BA3F1
:1024D0009CA3ADA3BEA36BA17CA18DA19EA120E076
:1024E00030E040E85FE30E94790388232CF481E028
:1024F00090E09AA389A33FC06BA17CA18DA19EA16E
:1025000020E03FEF4FE757E40E94190318164CF5FF
:102510006FA178A589A59AA520E030E040E251E4BA
:102520000E941F02DC01CB01BC01CD010E944900C9
:10253000DC01CB019AA389A30FC088EC90E098A39B
:102540008F8F8F8D98A10197F1F798A38F8F89A115
:102550009AA101979AA389A389A19AA1009769F7E3
:1025600014C06BA17CA18DA19EA10E944900DC0139
:10257000CB019AA389A389A19AA19E8F8D8F8D8D5E
:102580009E8D0197F1F79E8F8D8F82E069AD0E943D
:102590004D0F80E090E0A0E8BFE3898F9A8FAB8F6A
:1025A000BC8F698D7A8D8B8D9C8D20E030E04AEF59
:1025B00054E40E941F02DC01CB018D8B9E8BAF8BFC
:1025C000B88F6D897E898F89988D20E030E040E852
:1025D0005FE30E94790388232CF481E090E09C8BD8
:1025E0008B8B3FC06D897E898F89988D20E03FEF6E
:1025F0004FE757E40E94190318164CF5698D7A8D40
:102600008B8D9C8D20E030E040E251E40E941F025F
:10261000DC01CB01BC01CD010E944900DC01CB01F2
:102620009C8B8B8B0FC088EC90E09A8B898B89896F
:102630009A890197F1F79A8B898B8B899C890197ED
:102640009C8B8B8B8B899C89009769F714C06D8953
:102650007E898F89988D0E944900DC01CB019C8B7B
:102660008B8B8B899C89988B8F878F859889019715
:10267000F1F7988B8F8783E067E040E00E94600E5F
:1026800080E090E0A0E8BFE38B879C87AD87BE87A2
:102690006B857C858D859E8520E030E04AEF54E493
:1026A0000E941F02DC01CB018F839887A987BA871C
:1026B0006F81788589859A8520E030E040E85FE386
:1026C0000E94790388232CF481E090E09E838D831F
:1026D0003FC06F81788589859A8520E03FEF4FE77D
:1026E00057E40E94190318164CF56B857C858D857F
:1026F0009E8520E030E040E251E40E941F02DC01B0
:10270000CB01BC01CD010E944900DC01CB019E83BD
:102710008D830FC088EC90E09C838B838B819C81A0
:102720000197F1F79C838B838D819E8101979E8316
:102730008D838D819E81009769F714C06F817885A4
:1027400089859A850E944900DC01CB019E838D8397
:102750008D819E819A83898389819A810197F1F77E
:102760009A838983E9960FB6F894DEBF0FBECDBF7A
:10277000CF91DF910895DF93CF93CDB7DEB7E9977F
:102780000FB6F894DEBF0FBECDBF89AF83E066E021
:1027900041E00E94600E80E090E0A0E8BFE38DABD6
:1027A0009EABAFABB8AF6DA97EA98FA998AD20E065
:1027B00030E04AEF54E40E941F02DC01CB0189ABF8
:1027C0009AABABABBCAB69A97AA98BA99CA920E059
:1027D00030E040E85FE30E94790388232CF481E035
:1027E00090E098AB8FA73FC069A97AA98BA99CA953
:1027F00020E03FEF4FE757E40E94190318164CF50D
:102800006DA97EA98FA998AD20E030E040E251E4A7
:102810000E941F02DC01CB01BC01CD010E944900D6
:10282000DC01CB0198AB8FA70FC088EC90E09EA78E
:102830008DA78DA59EA50197F1F79EA78DA78FA5C2
:1028400098A9019798AB8FA78FA598A9009769F7CA
:1028500014C069A97AA98BA99CA90E944900DC012E
:10286000CB0198AB8FA78FA598A99CA78BA78BA509
:102870009CA50197F1F79CA78BA783E067E041E057
:102880000E94600E80E090E0A0E8BFE38FA398A7CD
:10289000A9A7BAA76FA178A589A59AA520E030E0DD
:1028A0004AEF54E40E941F02DC01CB018BA39CA3DE
:1028B000ADA3BEA36BA17CA18DA19EA120E030E0C1
:1028C00040E85FE30E94790388232CF481E090E0E4
:1028D0009AA389A33FC06BA17CA18DA19EA120E0FA
:1028E0003FEF4FE757E40E94190318164CF56FA10C
:1028F00078A589A59AA520E030E040E251E40E9445
:102900001F02DC01CB01BC01CD010E944900DC01AA
:10291000CB019AA389A30FC088EC90E098A38F8F76
:102920008F8D98A10197F1F798A38F8F89A19AA114
:1029300001979AA389A389A19AA1009769F714C066
:102940006BA17CA18DA19EA10E944900DC01CB015D
:102950009AA389A389A19AA19E8F8D8F8D8D9E8D1B
:102960000197F1F79E8F8D8F82E069AD0E944D0F28
:1029700080E090E0A0E8BFE3898F9A8FAB8FBC8F97
:10298000698D7A8D8B8D9C8D20E030E04AEF54E488
:102990000E941F02DC01CB018D8B9E8BAF8BB88F09
:1029A0006D897E898F89988D20E030E040E85FE373
:1029B0000E94790388232CF481E090E09C8B8B8B20
:1029C0003FC06D897E898F89988D20E03FEF4FE76A
:1029D00057E40E94190318164CF5698D7A8D8B8D7A
:1029E0009C8D20E030E040E251E40E941F02DC01B7
:1029F000CB01BC01CD010E944900DC01CB019C8BC5
:102A00008B8B0FC088EC90E09A8B898B89899A898F
:102A10000197F1F79A8B898B8B899C8901979C8B05
:102A20008B8B8B899C89009769F714C06D897E898F
:102A30008F89988D0E944900DC01CB019C8B8B8B88
:102A40008B899C89988B8F878F8598890197F1F75F
:102A5000988B8F8783E067E040E00E94600E80E003
:102A600090E0A0E8BFE38B879C87AD87BE876B852E
:102A70007C858D859E8520E030E04AEF54E40E94FD
:102A80001F02DC01CB018F839887A987BA876F81EA
:102A9000788589859A8520E030E040E85FE30E94F0
:102AA000790388232CF481E090E09E838D833FC0DE
:102AB0006F81788589859A8520E03FEF4FE757E45D
:102AC0000E94190318164CF56B857C858D859E85B3
:102AD00020E030E040E251E40E941F02DC01CB0123
:102AE000BC01CD010E944900DC01CB019E838D8396
:102AF0000FC088EC90E09C838B838B819C81019735
:102B0000F1F79C838B838D819E8101979E838D83BA
:102B10008D819E81009769F714C06F8178858985C2
:102B20009A850E944900DC01CB019E838D838D81B3
:102B30009E819A83898389819A810197F1F79A838B
:102B40008983E9960FB6F894DEBF0FBECDBFCF9153
:102B5000DF910895DF93CF9300D0CDB7DEB79A838E
:102B600089830AC0E981FA8180810E94BB1389812F
:102B70009A8101969A838983E981FA8180818823E9
:102B800089F70F900F90CF91DF910895DF93CF9346
:102B900000D000D00F92CDB7DEB78A836B838A81D5
:102BA000282F30E03D832C838C819D8181309105DD
:102BB000C1F02C813D81223031052CF48C819D8126
:102BC000009761F019C02C813D812230310569F0F8
:102BD0008C819D818330910561F00EC08B8189834A
:102BE0000BC08B81805C898307C08B81805F898368
:102BF00003C08B81805B8983898180680E94CC11AE
:102C00000F900F900F900F900F90CF91DF9108953C
:102C1000DF93CF9300D000D0CDB7DEB789836A832E
:102C20005C834B8389816A810E94C6158B819C815C
:102C30000E94AA150F900F900F900F90CF91DF91E7
:102C40000895DF93CF93CDB7DEB764970FB6F894AE
:102C5000DEBF0FBECDBF698B7A8B8B8B9C8B8DB704
:102C60009EB708970FB6F8949EBF0FBE8DBFEDB705
:102C7000FEB73196CE0101969183808380E591E085
:102C80009383828389899A89AB89BC89848395835C
:102C9000A683B7830E94FD178DB79EB708960FB61F
:102CA000F8949EBF0FBE8DBFCE0101960E94AA155B
:102CB00064960FB6F894DEBF0FBECDBFCF91DF9103
:102CC0000895DF93CF93CDB7DEB781E00E94CC119A
:102CD000CF91DF910895DF93CF9300D000D0CDB78F
:102CE000DEB79C838B831A821982EBE2F0E080814D
:102CF00082608083EAE2F0E0808180618083EAE2A2
:102D0000F0E0808188608083EAE2F0E080818B7F60
:102D10008083E0E4F0E0808180688083A0E4B0E01C
:102D2000EB81FC81828181708170982F990F990FBE
:102D3000990F8C91877F892B8C93A0E4B0E0E0E41D
:102D4000F0E08081282F2F7CEB81FC818181882F0E
:102D500090E08370907082959295907F9827807F05
:102D60009827822B8C93A0E4B0E0E0E4F0E080812F
:102D7000282F297FEB81FC818081882F90E0837050
:102D80009070880F991F822B8C93EB81FC8183813B
:102D90009481CC01A0E0B0E0880F991FAA1FBB1F4F
:102DA000880F991FAA1FBB1F880F991FAA1FBB1F3F
:102DB0009C01AD0180E092E1AAE7B0E0BC01CD0149
:102DC0000E949B17DA01C90101979A838983E0E485
:102DD000F0E089819A81892F99278083E9E2F0E0E8
:102DE000898180830F900F900F900F90CF91DF918A
:102DF0000895DF93CF930F92CDB7DEB78983EBE2CF
:102E0000F0E0808180728823D1F3ECE2F0E08981E8
:102E100080830F90CF91DF910895DF93CF93CDB74B
:102E2000DEB7EBE2F0E0808180788823D1F3ECE23A
:102E3000F0E08081CF91DF910895DF93CF9300D0B0
:102E4000CDB7DEB79A8389830AC0E981FA81808190
:102E50000E94F91689819A8101969A838983E98172
:102E6000FA818081882389F70F900F90CF91DF91AD
:102E700008950F931F93DF93CF9300D00F92CDB798
:102E8000DEB79B838A8319828981282F30E08A816B
:102E90009B818C01020F131F0E940D17F801808384
:102EA0000FC089818F5F89838981282F30E08A81D3
:102EB0009B818C01020F131F0E940D17F801808364
:102EC0008981282F30E08A819B81FC01E20FF31F6A
:102ED0008081833231F78981282F30E08A819B817C
:102EE000FC01E20FF31F10820F900F900F90CF9113
:102EF000DF911F910F910895629FD001739FF001A0
:102F0000829FE00DF11D649FE00DF11D929FF00D79
:102F1000839FF00D749FF00D659FF00D9927729FB0
:102F2000B00DE11DF91F639FB00DE11DF91FBD013B
:102F3000CF0111240895A1E21A2EAA1BBB1BFD018B
:102F40000DC0AA1FBB1FEE1FFF1FA217B307E40788
:102F5000F50720F0A21BB30BE40BF50B661F771FE0
:102F6000881F991F1A9469F76095709580959095C0
:102F70009B01AC01BD01CF0108952F923F924F926A
:102F80005F926F927F928F929F92AF92BF92CF92F9
:102F9000DF92EF92FF920F931F93CF93DF93CDB702
:102FA000DEB7CA1BDB0B0FB6F894DEBF0FBECDBF7A
:102FB00009942A88398848885F846E847D848C844B
:102FC0009B84AA84B984C884DF80EE80FD800C8154
:102FD0001B81AA81B981CE0FD11D0FB6F894DEBF37
:102FE0000FBECDBFED010895FB01DC018D91019075
:102FF00080190110D9F3990B0895AEE0B0E0E3E039
:10300000F8E10C94CB170D891E8986E08C831A8316
:1030100009838FEF9FE79E838D839E01275E3F4F3D
:10302000CE0101966F89788DA9010E9421182F8108
:103030003885020F131FF80110822E96E4E00C94DD
:10304000E717ABE0B0E0E7E2F8E10C94BD173C0114
:103050002B015A01FC0117821682838181FD03C076
:103060006FEF7FEFC6C19AE0892E1E010894211CE4
:10307000311CF3012381F20123FD859123FF81910E
:103080002F01882309F4B2C1853239F423FD8591DB
:1030900023FF81912F01853229F490E0B3010E9432
:1030A000141AE7CF982FFF24EE249924FFE1FF158F
:1030B000D0F09B3269F09C3228F4903259F0933270
:1030C00091F40EC09D3249F0903369F441E024C080
:1030D00052E0F52A84E0F82A28C098E0F92A25C0B1
:1030E000E0E1FE2A22C0F7FC29C0892F80538A30F4
:1030F00070F4F6FE05C0989C902C1124980E15C013
:10310000E89CE02C1124E80EF0E2FF2A0EC09E326B
:1031100029F4F6FC6BC140E4F42A07C09C3619F48C
:1031200050E8F52A02C0983649F4F20123FD959142
:1031300023FF91912F01992309F0B8CF892F85544E
:10314000833018F08052833038F444E050E0A40E0D
:10315000B51E5FE359830FC0933631F0933779F092
:10316000933509F056C020C0F5018081898342E083
:1031700050E0A40EB51E610101E010E012C0F5019F
:10318000C080D180F6FC03C06FEF7FEF02C0692DD5
:1031900070E042E050E0A40EB51EC6010E94091A7C
:1031A0008C015FE7F52214C0F501C080D180F6FCE8
:1031B00003C06FEF7FEF02C0692D70E042E050E086
:1031C000A40EB51EC6010E94FE198C0150E8F52A16
:1031D000F3FE07C01AC080E290E0B3010E94141A07
:1031E000EA948E2D90E008171907A8F30EC0F60197
:1031F000F7FC8591F7FE81916F0190E0B3010E9489
:10320000141AE110EA94015010400115110579F7E4
:10321000EAC0943611F0993669F5F7FE08C0F50159
:10322000208131814281538184E090E00AC0F50120
:10323000808191819C01442737FD4095542F82E085
:1032400090E0A80EB91E9FE6F92257FF09C05095DD
:103250004095309521953F4F4F4F5F4FE0E8FE2A54
:10326000CA01B901A1012AE030E00E94401AD82E1B
:10327000D21840C0953729F41F2D1F7E2AE030E078
:103280001DC01F2D197F9F3661F0903720F49835AF
:1032900009F0ACC00FC0903739F0983709F0A6C0DC
:1032A00004C028E030E00AC0106114FD146020E181
:1032B00030E004C014FD166020E132E017FF08C0C2
:1032C000F501608171818281938144E050E008C002
:1032D000F50180819181BC0180E090E042E050E006
:1032E000A40EB51EA1010E94401AD82ED2188FE755
:1032F000F82EF122F6FE0BC05EEFF522D91438F459
:10330000F4FE07C0F2FC05C08FEEF82202C01D2DAE
:1033100001C0192DF4FE0DC0FE01ED0DF11D8081DF
:10332000803319F499EEF92208C01F5FF2FE05C040
:1033300003C08F2D867809F01F5F0F2DF3FC14C09A
:10334000F0FE0FC01E1510F09D2C0BC09D2C9E0C86
:10335000911A1E2D06C080E290E0B3010E94141A5B
:103360001F5F1E15C0F304C01E1510F4E11A01C042
:10337000EE2404FF0FC080E390E0B3010E94141A12
:1033800002FF1DC001FD03C088E790E00EC088E584
:1033900090E00BC0802F867891F001FF02C08BE295
:1033A00001C080E2F7FC8DE290E0B3010E94141AA4
:1033B00006C080E390E0B3010E94141A9A94D914D5
:1033C000C0F3DA94F101ED0DF11D808190E0B301BD
:1033D0000E94141ADD20A9F706C080E290E0B30134
:1033E0000E94141AEA94EE20C1F743CEF3016681DD
:1033F0007781CB012B96E2E10C94D917FC01059063
:10340000615070400110D8F7809590958E0F9F1FE6
:103410000895FC016150704001900110D8F780952B
:1034200090958E0F9F1F08950F931F93CF93DF9357
:103430008C01EB018B8181FF1BC082FF0DC02E81AF
:103440003F818C819D812817390764F4E881F981D7
:103450000193F983E88306C0E885F985802F0995F3
:10346000892B31F48E819F8101969F838E8302C0C8
:103470000FEF1FEFC801DF91CF911F910F910895BA
:10348000FA01AA27283051F1203181F1E8946F9395
:103490006E7F6E5F7F4F8F4F9F4FAF4FB1E03ED03B
:1034A000B4E03CD0670F781F891F9A1FA11D680FD9
:1034B000791F8A1F911DA11D6A0F711D811D911D0C
:1034C000A11D20D009F468943F912AE0269F112481
:1034D0003019305D3193DEF6CF010895462F4770E5
:1034E000405D4193B3E00FD0C9F7F6CF462F4F7040
:1034F000405D4A3318F0495D31FD4052419302D09E
:10350000A9F7EACFB4E0A695979587957795679543
:10351000BA95C9F700976105710508959B01AC0143
:103520000A2E06945795479537952795BA95C9F76A
:10353000620F731F841F951FA01D0895F894FFCF7D
:1035400050617373206D61746368656400506173CA
:1035500073206E6F74206D617463686564005772C8
:103560006F6E672050617373776F7264202000570D
:1035700061697420666F722031206D696E2E2000A3
:10358000446F6F7220556E6C6F636B696E67005786
:10359000726F6E672050617373776F72640057614A
:1035A000697420666F722031206D696E2E00456E41
:1035B000746572206E657720706173733A00506C89
:1035C0007A20656E74657220706173733A00506C76
:1035D0007A2072652D656E746572207468653A0094
:1035E00073616D6520706173733A20002B203A205F
:1035F0004F70656E20446F6F7220202020002D20B8
:103600003A204368616E6765205061737320200023
:10361000446F6F7220756E6C6F636B656420202041
:1036200000446F6F72204C6F636B696E67202000DF
:10363000256C7500000000000000000091018C0165
:1036400088019501FF0000E1E4050400008D5B05A1
:10365000040000E1E40504030000802560006D0023
:00000001FF
